:100000000C942A000C946D010C9494010C94BB0187
:100010000C94E2010C9409020C9430020C945702E7
:100020000C947E020C94A5020C94CC020C94F30266
:100030000C941A030C9441030C9468030C948F03E2
:100040000C94B6030C94DD030C9404040C942B0460
:100050000C94520411241FBECFE5D8E0DEBFCDBF03
:1000600010E0A0E6B0E0E4EFF4E102C005900D92EC
:10007000AE36B107D9F710E0AEE6B0E001C01D9290
:10008000A63AB107E1F70E9449000C94780A0C9453
:10009000000080E00E94790481E068E04FEF0E9458
:1000A000AB0087E660E040E023E000E00E947E08CD
:1000B0000E94E0080E948405FFCF813049F0813022
:1000C00028F0823039F0833041F406C06ABB0895CD
:1000D00067BB089564BB089561BB0895813049F002
:1000E000813028F0823039F0833041F406C06BBB98
:1000F000089568BB089565BB089562BB089581307B
:1001000059F0813028F0823059F0833081F40CC0EE
:100110008BB380958BBB089588B3809588BB089579
:1001200085B3809585BB089582B3809582BB089581
:10013000813049F0813028F0823039F0833049F441
:1001400006C08BB3089588B3089585B3089582B32C
:10015000089580E00895442319F04F3FD1F521C060
:10016000813069F0813028F0823079F08330C9F431
:1001700012C08AB3962F909589238ABB1BC087B380
:10018000962F9095892387BB19C084B3962F90959D
:10019000892384BB17C081B3962F9095892381BB97
:1001A00015C0813059F0813028F0823059F0833009
:1001B00081F40CC08AB3682B6ABB089587B3682B9F
:1001C00067BB089584B3682B64BB089581B3682B23
:1001D00061BB0895442319F04F3FB1F51DC0813034
:1001E00061F0813028F0823069F0833069F50FC00A
:1001F0008BB3609568236BBB089588B360956823C3
:1002000068BB089585B36095682365BB089582B384
:100210006095682362BB0895813059F0813028F0E1
:10022000823059F0833081F40CC08BB3682B6BBBE8
:10023000089588B3682B68BB089585B3682B65BBA8
:10024000089582B3682B62BB0895813059F08130E4
:1002500028F0823059F0833081F40CC08BB36827CA
:100260006BBB089588B3682768BB089585B368277A
:1002700065BB089582B3682762BB0895813051F051
:10028000813028F0823049F0833069F409C089B3A5
:1002900068230AC086B3682307C083B3682304C0F9
:1002A00080B3682301C060E081E0662309F480E048
:1002B00008958FB780688FBF089581E064E040E0C3
:1002C0000E94AB008BB780628BBF84B7806484BF11
:1002D00008958FB78F778FBF08951F920F920FB633
:1002E0000F9211242F933F934F935F936F937F93BC
:1002F0008F939F93AF93BF93EF93FF93E0918E0003
:10030000F0918F000995FF91EF91BF91AF919F916F
:100310008F917F916F915F914F913F912F910F90AE
:100320000FBE0F901F9018951F920F920FB60F924D
:1003300011242F933F934F935F936F937F938F93EA
:100340009F93AF93BF93EF93FF93E0919400F0914D
:1003500095000995FF91EF91BF91AF919F918F917A
:100360007F916F915F914F913F912F910F900FBEB1
:100370000F901F9018951F920F920FB60F92112495
:100380002F933F934F935F936F937F938F939F939D
:10039000AF93BF93EF93FF93E0918400F0918500BA
:1003A0000995FF91EF91BF91AF919F918F917F91AF
:1003B0006F915F914F913F912F910F900FBE0F90D2
:1003C0001F9018951F920F920FB60F9211242F9322
:1003D0003F934F935F936F937F938F939F93AF93CD
:1003E000BF93EF93FF93E0919A00F0919B000995E2
:1003F000FF91EF91BF91AF919F918F917F916F91FD
:100400005F914F913F912F910F900FBE0F901F90D2
:1004100018951F920F920FB60F9211242F933F93AE
:100420004F935F936F937F938F939F93AF93BF93FC
:10043000EF93FF93E0917C00F0917D000995FF918F
:10044000EF91BF91AF919F918F917F916F915F914C
:100450004F913F912F910F900FBE0F901F901895C5
:100460001F920F920FB60F9211242F933F934F9329
:100470005F936F937F938F939F93AF93BF93EF930C
:10048000FF93E0919600F09197000995FF91EF910D
:10049000BF91AF919F918F917F916F915F914F919C
:1004A0003F912F910F900FBE0F901F9018951F92A4
:1004B0000F920FB60F9211242F933F934F935F9398
:1004C0006F937F938F939F93AF93BF93EF93FF931C
:1004D000E0918200F09183000995FF91EF91BF9127
:1004E000AF919F918F917F916F915F914F913F91CC
:1004F0002F910F900FBE0F901F9018951F920F9283
:100500000FB60F9211242F933F934F935F936F93E6
:100510007F938F939F93AF93BF93EF93FF93E0915C
:100520008000F09181000995FF91EF91BF91AF910B
:100530009F918F917F916F915F914F913F912F91FB
:100540000F900FBE0F901F9018951F920F920FB62D
:100550000F9211242F933F934F935F936F937F9349
:100560008F939F93AF93BF93EF93FF93E091980086
:10057000F09199000995FF91EF91BF91AF919F91F3
:100580008F917F916F915F914F913F912F910F903C
:100590000FBE0F901F9018951F920F920FB60F92DB
:1005A00011242F933F934F935F936F937F938F9378
:1005B0009F93AF93BF93EF93FF93E0919000F091DF
:1005C00091000995FF91EF91BF91AF919F918F910C
:1005D0007F916F915F914F913F912F910F900FBE3F
:1005E0000F901F9018951F920F920FB60F92112423
:1005F0002F933F934F935F936F937F938F939F932B
:10060000AF93BF93EF93FF93E0918600F091870043
:100610000995FF91EF91BF91AF919F918F917F913C
:100620006F915F914F913F912F910F900FBE0F905F
:100630001F9018951F920F920FB60F9211242F93AF
:100640003F934F935F936F937F938F939F93AF935A
:10065000BF93EF93FF93E0916300F09164000995DD
:10066000FF91EF91BF91AF919F918F917F916F918A
:100670005F914F913F912F910F900FBE0F901F9060
:1006800018951F920F920FB60F9211242F933F933C
:100690004F935F936F937F938F939F93AF93BF938A
:1006A000EF93FF93E0917A00F0917B000995FF9121
:1006B000EF91BF91AF919F918F917F916F915F91DA
:1006C0004F913F912F910F900FBE0F901F90189553
:1006D0001F920F920FB60F9211242F933F934F93B7
:1006E0005F936F937F938F939F93AF93BF93EF939A
:1006F000FF93E0919200F09193000995FF91EF91A3
:10070000BF91AF919F918F917F916F915F914F9129
:100710003F912F910F900FBE0F901F9018951F9231
:100720000F920FB60F9211242F933F934F935F9325
:100730006F937F938F939F93AF93BF93EF93FF93A9
:10074000E0916100F09162000995FF91EF91BF91F6
:10075000AF919F918F917F916F915F914F913F9159
:100760002F910F900FBE0F901F9018951F920F9210
:100770000FB60F9211242F933F934F935F936F9374
:100780007F938F939F93AF93BF93EF93FF93E091EA
:100790008A00F0918B000995FF91EF91BF91AF9185
:1007A0009F918F917F916F915F914F913F912F9189
:1007B0000F900FBE0F901F9018951F920F920FB6BB
:1007C0000F9211242F933F934F935F936F937F93D7
:1007D0008F939F93AF93BF93EF93FF93E0918C0020
:1007E000F0918D000995FF91EF91BF91AF919F918D
:1007F0008F917F916F915F914F913F912F910F90CA
:100800000FBE0F901F9018951F920F920FB60F9268
:1008100011242F933F934F935F936F937F938F9305
:100820009F93AF93BF93EF93FF93E0918800F09174
:1008300089000995FF91EF91BF91AF919F918F91A1
:100840007F916F915F914F913F912F910F900FBECC
:100850000F901F9018951F920F920FB60F921124B0
:100860002F933F934F935F936F937F938F939F93B8
:10087000AF93BF93EF93FF93E0917800F0917900ED
:100880000995FF91EF91BF91AF919F918F917F91CA
:100890006F915F914F913F912F910F900FBE0F90ED
:1008A0001F9018951F920F920FB60F9211242F933D
:1008B0003F934F935F936F937F938F939F93AF93E8
:1008C000BF93EF93FF93E0917E00F0917F00099535
:1008D000FF91EF91BF91AF919F918F917F916F9118
:1008E0005F914F913F912F910F900FBE0F901F90EE
:1008F0001895813069F0813028F0823079F08330AA
:10090000C1F412C081E060E14FEF0E94AB00089596
:1009100081E060E24FEF0E94AB00089581E060E467
:100920004FEF0E94AB00089581E060E84FEF0E9416
:10093000AB000895813069F0813028F0823079F081
:100940008330C1F412C081E060E14FEF0E94EA0001
:10095000089581E060E24FEF0E94EA00089581E08F
:1009600060E44FEF0E94EA00089581E060E84FEFF5
:100970000E94EA000895813069F0813028F08230C9
:1009800079F08330C1F412C081E060E140E00E9460
:10099000EA00089581E060E240E00E94EA000895E4
:1009A00081E060E440E00E94EA00089581E060E8B0
:1009B00040E00E94EA000895813061F0813028F023
:1009C000823069F08330A1F40FC081E060E10E94C1
:1009D0002501089581E060E20E942501089581E0EB
:1009E00060E40E942501089581E060E80E942501ED
:1009F0000895813069F0813028F0823079F08330B9
:100A0000C1F412C082E060E140E00E94AB000895B2
:100A100081E064E040E00E94AB00089580E064E083
:100A200040E00E94AB00089580E068E040E00E9452
:100A3000AB0008958130F9F0813030F0823081F1DF
:100A4000833009F057C041C082E060E10E943E015E
:100A5000813009F050C00E94180782E390E00E94A4
:100A6000730782E060E10E943E0191E0813009F469
:100A700049C090E047C081E064E00E943E018130BF
:100A8000E1F50E94180782E390E00E94730781E07D
:100A900064E00E943E0191E08130A1F190E032C01B
:100AA00080E064E00E943E01813049F50E94180711
:100AB00082E390E00E94730780E064E00E943E01C0
:100AC00091E08130F9F090E01DC080E068E00E9484
:100AD0003E018130B1F40E94180782E390E00E9449
:100AE000730780E068E00E943E0191E0813051F0A0
:100AF00090E008C0089590E005C090E003C090E049
:100B000001C090E0892F08959DB180916500892BE7
:100B100090916C00892B90916900892B90916600CF
:100B2000892B90916A00892B90916B00892B8DB94C
:100B30009EB180916800892B8EB981E060EB4FEF08
:100B40000E94AB0081E060E440E00E94AB009DB1F8
:100B500080916700892B8DB908958FB180936000D3
:100B60008091600090E00E94F10881E080936E0027
:100B700008958FB96F9902C0779BFECF08958FB10A
:100B800008956F9902C0779BFECF8FB108958EB103
:100B900082958695869583708170089582BF0895A9
:100BA00082B7089583B7887F83BF93B7809175001C
:100BB000892B83BF089583B7887F83BF0895EF9201
:100BC0000F93442319F40E94DB0546C093B7892B89
:100BD000842B83BF4093750022BF603171F0613177
:100BE00018F4662331F014C0603259F0603381F498
:100BF0000CC083B78F7C83BF0BC083B7806183BF7A
:100C000007C083B7806283BF03C083B7806383BF9D
:100C10000CBF81E0E81659F0E81620F082E0E816F3
:100C2000D9F40EC01092740089B719BE15C081E0C6
:100C3000809374000E94590189B7816089BF0CC0FC
:100C400081E0809374008FB780688FBF89B781601F
:100C500089BF89B7826089BF0F91EF900895AC0179
:100C600060E070E0411551056105710589F080E093
:100C700090E0DC0108B600FEFDCF28B7216028BF58
:100C80000196A11DB11D84179507A607B70790F31C
:100C90000895DC01CB010097A105B10531F080EF8B
:100CA0000E94CE050E94D005FDCF88B7816088BF25
:100CB0000895CF92DF92EF92FF92CF93C82F8FEFDC
:100CC000809370006091700070E080E090E00E947E
:100CD00087096B017C016C2F70E080E090E00E943E
:100CE000870920E030E048EC52E40E94F3089B01C1
:100CF000AC01C701B6010E94150A0E945B0960930E
:100D0000700080917400882319F0813029F51FC08C
:100D10000E94D205809170000E94CE0508B600FEA8
:100D2000FDCF88B7816088BF85B38FEF85BB0E94F8
:100D3000D2058091700080950E94CE0508B600FE15
:100D4000FDCF88B7816088BF85B315BA05C00E9402
:100D5000D205809170008CBFCF91FF90EF90DF9013
:100D6000CF90089582B3809582BB0895AF92EF92A1
:100D7000FF920F931F93D9012A2DEEB5FFB590E096
:100D8000862B972B8E2B9F2B9FBD8EBD4093710082
:100D90001BBD0ABDF9BCE8BCBDBDACBD2830D1F05F
:100DA000293028F4AA2051F02430F9F40BC0203265
:100DB000A9F02C33B9F02031C1F408C089B7837C85
:100DC00089BF13C089B7846089BF0FC089B78061AC
:100DD00089BF0BC089B7886089BF07C089B78062A7
:100DE00089BF03C089B78C6389BF1F910F91FF90A2
:100DF000EF90AF9008959DBD8CBD08958CB59DB5C5
:100E000008952EB53FB58091710090E0822B932B11
:100E10009FBD8EBD08958EB59FB5887F9FBD8EBD49
:100E2000089508950895089584BD089584B508959A
:100E300085B5887F85BD95B580917200892B85BD6C
:100E4000089585B5887F85BD0895CF920F9344237B
:100E500019F40E94210744C095B5892B842B85BDC8
:100E60004093720024BD603171F0613118F4662343
:100E700031F014C0603259F0603381F40CC085B594
:100E80008F7C85BD0BC085B5806185BD07C085B5EC
:100E9000806285BD03C085B5806385BD03BD80E4E8
:100EA000C81651F080E8C81681F0CC20C9F4109221
:100EB000730089B719BE14C081E0809373000E944B
:100EC000590189B7806489BF0BC081E080937300AA
:100ED0000E94590189B7806489BF89B7806889BF3A
:100EE0000F91CF9008950F931F93CF93DF9300D06E
:100EF00000D0CDB7DEB78C011A8219821B821C820A
:100F0000809172008430F9F0853038F4823089F0B5
:100F10008330A0F4813051F507C08630F1F086307F
:100F2000B8F0873019F51EC08AE38B838AE08C8382
:100F30001DC088E08B838CE08C8318C082E08B839B
:100F400088E08C8313C081E08B8386E08C830EC0A5
:100F500081E08B8383E88C8309C081E08B8382EC02
:100F60008C8304C081E08B8380EF8C831A8219828A
:100F70002B8149815A8130E0029FC001039F900D6F
:100F8000129F900D112448175907E0F48C810E949C
:100F9000140708B606FEFDCF88B7806488BF898134
:100FA0009A8101969A8389832B8149815A8130E005
:100FB000029FC001039F900D129F900D11244817AE
:100FC000590720F30F900F900F900F90DF91CF9162
:100FD0001F910F910895CF92DF92EF92FF92CF93DE
:100FE000DF9300D0CDB7DEB76B017C011A82198286
:100FF0001A82198289819A81A0E0B0E08C159D0542
:10100000AE05BF05B8F48EEF0E94140708B606FEC1
:10101000FDCF88B7806488BF89819A8101969A83C1
:10102000898389819A81A0E0B0E08C159D05AE0589
:10103000BF0548F30F900F90DF91CF91FF90EF9095
:10104000DF90CF900895CF92DF92EF92FF92CF93EF
:10105000C82F8FEF809370006091700070E080E087
:1010600090E00E9487096B017C016C2F70E080E0AA
:1010700090E00E94870920E030E048EC52E40E94B2
:10108000F3089B01AC01C701B6010E94150A0E943A
:101090005B096093700080917300882319F08130A0
:1010A00029F51FC00E941807809170000E94140744
:1010B00008B602FEFDCF88B7846088BF85B38FEF86
:1010C00085BB0E9418078091700080950E941407CC
:1010D00008B602FEFDCF88B7846088BF85B315BA15
:1010E00005C00E9418078091700083BDCF91FF90CA
:1010F000EF90DF90CF900895089508950F93833374
:1011000071F0843318F4893179F40CC0843421F0FF
:10111000873651F489B908C084E489B905C083E3EE
:1011200089B902C089E189B9662331F0613011F0D3
:1011300080E003C088E801C080E82230A1F02330BD
:1011400028F4222341F02130B9F409C0233079F08A
:10115000243091F40FC08068897F52980DC0826856
:101160008B7F529809C089778468529805C0866839
:10117000529802C08668529A002319F0013029F46F
:1011800003C080688F7B01C0806C413041F04130EA
:1011900018F0423041F406C080688F7C04C08F7420
:1011A000806A01C0806B80BD539A549A0F91089554
:1011B0005D9BFECF8CB908955F9BFECF8CB10895E7
:1011C0000E945901579A569A6F9A08958CB180934C
:1011D00060000895809160008CB90895809360004C
:1011E00008958CB908950CD0E6C0DED040F0D5D07B
:1011F00030F021F45F3F19F0C7C0511110C1CAC0CF
:10120000EBD098F39923C9F35523B1F3951B550BF4
:10121000BB27AA2762177307840738F09F5F5F4FC9
:10122000220F331F441FAA1FA9F333D00E2E3AF00A
:10123000E0E830D091505040E695001CCAF729D024
:10124000FE2F27D0660F771F881FBB1F2617370773
:101250004807AB07B0E809F0BB0B802DBF01FF27A3
:1012600093585F4F2AF09E3F510568F08DC0D7C05C
:101270005F3FECF3983EDCF3869577956795B795DD
:10128000F7959F5FC9F7880F911D9695879597F9F8
:101290000895E1E0660F771F881FBB1F6217730771
:1012A0008407BA0720F0621B730B840BBA0BEE1F86
:1012B00088F7E095089598D088F09F5790F0B92F5F
:1012C0009927B751A0F0D1F0660F771F881F991F9B
:1012D0001AF0BA95C9F712C0B13081F09FD0B1E0D1
:1012E00008959CC0672F782F8827B85F39F0B93FE1
:1012F000CCF3869577956795B395D9F73EF490959D
:101300008095709561957F4F8F4F9F4F0895E8941A
:1013100009C097FB3EF490958095709561957F4F3D
:101320008F4F9F4F9923A9F0F92F96E9BB279395EB
:10133000F695879577956795B795F111F8CFFAF4FB
:10134000BB0F11F460FF1BC06F5F7F4F8F4F9F4F2C
:1013500016C0882311F096E911C0772321F09EE88A
:10136000872F762F05C0662371F096E8862F70E0F0
:1013700060E02AF09A95660F771F881FDAF7880FCA
:101380009695879597F9089597F99F6780E870E09B
:1013900060E008959FEF80EC089500240A941616EB
:1013A000170618060906089500240A941216130653
:1013B000140605060895092E0394000C11F48823E1
:1013C00052F0BB0F40F4BF2B11F460FF04C06F5FFD
:1013D0007F4F8F4F9F4F089557FD9058440F551FD3
:1013E00059F05F3F71F04795880F97FB991F61F0A7
:1013F0009F3F79F087950895121613061406551F1E
:10140000F2CF4695F1DF08C0161617061806991F89
:10141000F1CF86957105610508940895E894BB277E
:1014200066277727CB0197F908950BD0C4CFB5DF96
:1014300028F0BADF18F0952309F0A6CFABCF11241E
:10144000EECFCADFA0F3959FD1F3950F50E0551F63
:10145000629FF001729FBB27F00DB11D639FAA2709
:10146000F00DB11DAA1F649F6627B00DA11D661F58
:10147000829F2227B00DA11D621F739FB00DA11D79
:10148000621F839FA00D611D221F749F3327A00D33
:10149000611D231F849F600D211D822F762F6A2FCF
:1014A00011249F5750408AF0E1F088234AF0EE0F54
:1014B000FF1FBB1F661F771F881F91505040A9F761
:1014C0009E3F510570F060CFAACF5F3FECF3983E8E
:1014D000DCF3869577956795B795F795E7959F5FC8
:1014E000C1F7FE2B880F911D9695879597F9089562
:0414F000F894FFCF9E
:0E14F40052EA08AD050001400008008020010A
:00000001FF
